S01700004763634170706C69636174696F6E312E737265635B
S11300000C9434000C9451000C9451000C94510045
S11300100C9451000C9451000C9451000C94EC017C
S11300200C9451000C94FB010C9451000C9451005D
S11300300C9451000C9451000C9451000C945100F8
S11300400C9451000C9451000C94E5000C94510054
S11300500C9451000C9451000C9451000C945100D8
S11300600C9451000C94510011241FBECFEFD8E022
S1130070DEBFCDBF11E0A0E0B1E0E0E5F7E002C0F3
S113008005900D92AC33B107D9F721E0ACE3B1E0B0
S113009001C01D92A634B207E1F70E947A010C94C4
S11300A0A6030C94000084B1826084B984B1846096
S11300B084B984B1886084B984B1806284B90895B4
S11300C0DF92EF92FF920F931F93CF93DF937C0104
S11300D08B01EA010E940F010E943201882309F476
S11300E066C00E9435018093420194E6899FB00165
S11300F01124072E000C880B990B0E94AD0220E0FE
S113010030EC4FE754E40E940A020E947C02D62E8F
S113011080E00E942F016D2D70E080E090E00E944D
S1130120AD0220E030E048EC52E40E940A0220E0F4
S113013030E04FE753E40E9439030E947C0290911F
S11301404101923569F028F4923431F19734B1F0D9
S11301502EC09736D1F0923751F0923641F522C035
S1130160F7016083862F90E00E94D60120C0F7013A
S11301706083862F90E00E94D60119C0F801608345
S1130180862F90E00E94DA0112C0F8016083862F66
S113019090E00E94DA010BC06883862F90E00E94F1
S11301A0E30105C06883862F90E00E94E301DF919C
S11301B0CF911F910F91FF90EF90DF900895809160
S11301C03D01089580933D0108951F920F920FB64B
S11301D00F9211248F938091C60080933C0181E09B
S11301E080933D0180913C01809341018F910F9058
S11301F00FBE0F901F90189587B1877F87B9EEE7E0
S1130200F0E080818860808310927B00EAE7F0E070
S113021080818368808383E480937C000895EAE787
S1130220F0E080818064808380917A0084FFFCCF39
S1130230EAE7F0E08081806180838091780090918A
S113024079009093400180933F0181E080933E01C7
S113025083ED90E30197F1F700C0000008958093C7
S11302603E01089580913E01089580913F0190914F
S1130270400108951092C10096E09093C20010923C
S1130280C5008093C4000895E1ECF0E080818860AB
S113029080830895E1ECF0E080818061808308959B
S11302A0E1ECF0E080818068808308958091C00053
S11302B085FFFCCF08958093C6000895EF92FF92C6
S11302C00F931F93CF937C01C0E007C00E94560197
S11302D0F80180810E945B01CF5F87010C0F111D23
S11302E0F80180818111F2CFCF911F910F91FF907E
S11302F0EF90089587E60E943A010E944A010E9405
S113030050010E9444010E94B5010E94C4010E9450
S1130310FC000E9453008FEF80934501109244012A
S1130320109243010E94D601809144010E94DA0197
S1130330809143010E94E301789480E091E00E945F
S11303405E010E94DF008823E1F343E451E064E4AA
S113035071E085E491E00E94600080E091E00E94F9
S11303605E0180E00E94E200ECCF109285001092C2
S11303708400E0E8F0E08081816A8083E1E8F0E0D5
S113038080818A60808308951092B200E0EBF0E0EF
S1130390808183688083E1EBF0E0808182608083E8
S11303A0E0E7F0E080818360808308958095809306
S11303B0B30008952FEF30E0281B310930938B00F0
S11303C020938A0008952FEF30E0281B31093093E1
S11303D089002093880008951F920F920FB60F9200
S11303E011248F9385B18F7D85B98F910F900FBEA6
S11303F00F901F9018951F920F920FB60F92112411
S11304008F9385B1806285B98F910F900FBE0F9045
S11304101F9018950E941E020C94FF020E94F8027D
S113042058F00E94F10240F029F45F3F29F00C9447
S1130430E80251110C9433030C94EE020E94100351
S113044068F39923B1F3552391F3951B550BBB27FF
S1130450AA2762177307840738F09F5F5F4F220F44
S1130460331F441FAA1FA9F335D00E2E3AF0E0E83B
S113047032D091505040E695001CCAF72BD0FE2F85
S113048029D0660F771F881FBB1F26173707480719
S1130490AB07B0E809F0BB0B802DBF01FF279358D1
S11304A05F4F3AF09E3F510578F00C94E8020C94AB
S11304B033035F3FE4F3983ED4F3869577956795CD
S11304C0B795F7959F5FC9F7880F911D9695879506
S11304D097F90895E1E0660F771F881FBB1F621725
S11304E073078407BA0720F0621B730B840BBA0BE3
S11304F0EE1F88F7E09508950E94180388F09F572F
S113050098F0B92F9927B751B0F0E1F0660F771F33
S1130510881F991F1AF0BA95C9F714C0B13091F029
S11305200E943203B1E008950C943203672F782FB0
S11305308827B85F39F0B93FCCF3869577956795EE
S1130540B395D9F73EF490958095709561957F4F5A
S11305508F4F9F4F0895E89409C097FB3EF4909500
S11305608095709561957F4F8F4F9F4F9923A9F088
S1130570F92F96E9BB279395F69587957795679517
S1130580B795F111F8CFFAF4BB0F11F460FF1BC05B
S11305906F5F7F4F8F4F9F4F16C0882311F096E9EE
S11305A011C0772321F09EE8872F762F05C066239C
S11305B071F096E8862F70E060E02AF09A95660F55
S11305C0771F881FDAF7880F9695879597F908950E
S11305D097F99F6780E870E060E008959FEF80ECF2
S11305E0089500240A941616170618060906089595
S11305F000240A9412161306140605060895092EFB
S11306000394000C11F4882352F0BB0F40F4BF2B69
S113061011F460FF04C06F5F7F4F8F4F9F4F0895A9
S113062057FD9058440F551F59F05F3F71F047959F
S1130630880F97FB991F61F09F3F79F08795089584
S1130640121613061406551FF2CF4695F1DF08C0A3
S1130650161617061806991FF1CF869571056105C0
S113066008940895E894BB2766277727CB0197F968
S113067008950E944C030C94FF020E94F10238F08A
S11306800E94F80220F0952311F00C94E8020C94D7
S1130690EE0211240C9433030E94100370F3959F0F
S11306A0C1F3950F50E0551F629FF001729FBB2765
S11306B0F00DB11D639FAA27F00DB11DAA1F649F01
S11306C06627B00DA11D661F829F2227B00DA11DB4
S11306D0621F739FB00DA11D621F839FA00D611D3A
S11306E0221F749F3327A00D611D231F849F600D5B
S11306F0211D822F762F6A2F11249F5750409AF084
S1130700F1F088234AF0EE0FFF1FBB1F661F771F0F
S1130710881F91505040A9F79E3F510580F00C94DA
S1130720E8020C9433035F3FE4F3983ED4F38695D8
S113073077956795B795F795E7959F5FC1F7FE2B7A
S1130740880F911D9695879597F90895F894FFCF92
S1130750496E677265736520522C2047206F2042D2
S113076020646570656E6469656E646F2064656C91
S113077020636F6C6F7220717565206465736565A5
S10F07802063616D62696172200A000050
S9030000FC
